{"contracts/TicTacToe.sol":{"TicTacToe":{"abi":[{"anonymous":false,"inputs":[{"indexed":false,"internalType":"string","name":"gameId","type":"string"},{"indexed":false,"internalType":"address","name":"player","type":"address"}],"name":"GameJoined","type":"event"},{"anonymous":false,"inputs":[{"indexed":false,"internalType":"string","name":"gameId","type":"string"},{"indexed":false,"internalType":"address","name":"winner","type":"address"}],"name":"GameOver","type":"event"},{"anonymous":false,"inputs":[{"indexed":false,"internalType":"string","name":"gameId","type":"string"},{"indexed":false,"internalType":"uint8","name":"position","type":"uint8"}],"name":"MoveMade","type":"event"},{"inputs":[{"internalType":"string","name":"","type":"string"}],"name":"games","outputs":[{"internalType":"uint256","name":"betAmount","type":"uint256"},{"internalType":"uint8","name":"currentTurn","type":"uint8"},{"internalType":"bool","name":"isComplete","type":"bool"}],"stateMutability":"view","type":"function"},{"inputs":[{"internalType":"string","name":"gameId","type":"string"}],"name":"joinGame","outputs":[],"stateMutability":"payable","type":"function"},{"inputs":[{"internalType":"string","name":"gameId","type":"string"},{"internalType":"uint8","name":"position","type":"uint8"}],"name":"makeMove","outputs":[],"stateMutability":"nonpayable","type":"function"}],"evm":{"bytecode":{"linkReferences":{},"object":"6080604052348015600f57600080fd5b50610cb48061001f6000396000f3fe6080604052600436106100345760003560e01c80633d536a2e146100395780636d20931a1461004e578063ab9e7f28146100bf575b600080fd5b61004c610047366004610a91565b6100df565b005b34801561005a57600080fd5b5061009c610069366004610a91565b80516020818301810180516000825292820191909301209152600281015460049091015460ff8082169161010090041683565b6040805193845260ff909216602084015215159082015260600160405180910390f35b3480156100cb57600080fd5b5061004c6100da366004610ace565b6102f9565b600080826040516100f09190610b4a565b908152602001604051809103902090506000341161015f5760405162461bcd60e51b815260206004820152602160248201527f42657420616d6f756e74206d7573742062652067726561746572207468616e206044820152600360fc1b60648201526084015b60405180910390fd5b80546001600160a01b03161580610181575060018101546001600160a01b0316155b6101bc5760405162461bcd60e51b815260206004820152600c60248201526b11d85b59481a5cc8199d5b1b60a21b6044820152606401610156565b6004810154610100900460ff16156102115760405162461bcd60e51b815260206004820152601860248201527747616d6520697320616c726561647920636f6d706c65746560401b6044820152606401610156565b80546001600160a01b031661023b5780546001600160a01b031916331781553460028201556102bc565b806002015434146102865760405162461bcd60e51b8152602060048201526015602482015274084cae840c2dadeeadce840daeae6e840dac2e8c6d605b1b6044820152606401610156565b6001810180546001600160a01b031916331790556102a5600242610b7c565b60048201805460ff191660ff929092169190911790555b7f69b91453edfa045ed34feb2b032d08b6c3333ec2404f18b285c7ce7ffe69ba5182336040516102ed929190610bca565b60405180910390a15050565b6000808360405161030a9190610b4a565b908152604051908190036020019020600481015490915060ff61010090910416156103725760405162461bcd60e51b815260206004820152601860248201527747616d6520697320616c726561647920636f6d706c65746560401b6044820152606401610156565b6004810154819060ff166002811061038c5761038c610b66565b01546001600160a01b031633146103d55760405162461bcd60e51b815260206004820152600d60248201526c2737ba103cb7bab9103a3ab93760991b6044820152606401610156565b60098260ff161061041b5760405162461bcd60e51b815260206004820152601060248201526f24b73b30b634b2103837b9b4ba34b7b760811b6044820152606401610156565b806003018260ff166009811061043357610433610b66565b602081049091015460ff601f9092166101000a9004161561048f5760405162461bcd60e51b81526020600482015260166024820152752837b9b4ba34b7b71030b63932b0b23c903a30b5b2b760511b6044820152606401610156565b60048101546104a29060ff166001610c0a565b816003018360ff16600981106104ba576104ba610b66565b602091828204019190066101000a81548160ff021916908360ff1602179055507f7797a5894c806f547b9fe4152037457f2e4e886b1202fb8fc7bbdd941ef6f571838360405161050b929190610c29565b60405180910390a160408051610120810191829052610569916003840190600990826000855b825461010083900a900460ff168152602060019283018181049485019490930390920291018084116105315790505050505050610749565b156105fb5760048101805461ff00191661010017905560028082015433916108fc9161059491610c4e565b6040518115909202916000818181858888f193505050501580156105bc573d6000803e3d6000fd5b507f86c4e7f427f035c302ce566cdd56a7fd525c4375c16343c801731901d3d58f2783336040516105ee929190610bca565b60405180910390a1505050565b60408051610120810191829052610651916003840190600990826000855b825461010083900a900460ff1681526020600192830181810494850194909303909202910180841161061957905050505050506109a4565b1561071b5760048101805461ff001916610100179055806000015460028201546040516001600160a01b039092169181156108fc0291906000818181858888f193505050501580156106a7573d6000803e3d6000fd5b50806001015460028201546040516001600160a01b039092169181156108fc0291906000818181858888f193505050501580156106e8573d6000803e3d6000fd5b507f86c4e7f427f035c302ce566cdd56a7fd525c4375c16343c801731901d3d58f278360006040516105ee929190610bca565b600481015461072e9060ff166001610c65565b60048201805460ff191660ff92909216919091179055505050565b60408051610160810182526000610100820181815260016101208401819052600261014085018190529184528451606081810187526003808352600460208481018290526005858b01819052818a019590955289518085018b52600680825260078284018190526008838e018190528c8e01939093528c518088018e528b815280850196909652858d01829052868c01959095528b518087018d52978852878301849052878c019490945260808a019690965289518085018b5287815280820195909552848a0186905260a089019490945288518084018a52878152808501829052808a019590955260c088019490945287519182018852938152908101919091529384015260e0820192909252815b600881101561099a578382826008811061087557610875610b66565b60200201515160ff166009811061088e5761088e610b66565b602002015160ff161580159061090f5750838282600881106108b2576108b2610b66565b60200201516001602002015160ff16600981106108d1576108d1610b66565b602002015160ff16848383600881106108ec576108ec610b66565b60200201515160ff166009811061090557610905610b66565b602002015160ff16145b801561098357508382826008811061092957610929610b66565b60200201516040015160ff166009811061094557610945610b66565b602002015160ff168483836008811061096057610960610b66565b60200201515160ff166009811061097957610979610b66565b602002015160ff16145b15610992575060019392505050565b600101610859565b5060009392505050565b6000805b60098110156109e3578281600981106109c3576109c3610b66565b602002015160ff166000036109db5750600092915050565b6001016109a8565b50600192915050565b634e487b7160e01b600052604160045260246000fd5b600082601f830112610a1357600080fd5b813567ffffffffffffffff811115610a2d57610a2d6109ec565b604051601f8201601f19908116603f0116810167ffffffffffffffff81118282101715610a5c57610a5c6109ec565b604052818152838201602001851015610a7457600080fd5b816020850160208301376000918101602001919091529392505050565b600060208284031215610aa357600080fd5b813567ffffffffffffffff811115610aba57600080fd5b610ac684828501610a02565b949350505050565b60008060408385031215610ae157600080fd5b823567ffffffffffffffff811115610af857600080fd5b610b0485828601610a02565b925050602083013560ff81168114610b1b57600080fd5b809150509250929050565b60005b83811015610b41578181015183820152602001610b29565b50506000910152565b60008251610b5c818460208701610b26565b9190910192915050565b634e487b7160e01b600052603260045260246000fd5b600082610b9957634e487b7160e01b600052601260045260246000fd5b500690565b60008151808452610bb6816020860160208601610b26565b601f01601f19169290920160200192915050565b604081526000610bdd6040830185610b9e565b905060018060a01b03831660208301529392505050565b634e487b7160e01b600052601160045260246000fd5b60ff8181168382160190811115610c2357610c23610bf4565b92915050565b604081526000610c3c6040830185610b9e565b905060ff831660208301529392505050565b8082028115828204841417610c2357610c23610bf4565b60ff8281168282160390811115610c2357610c23610bf456fea2646970667358221220fd3712193072471912228ded7d736e15e20aeafab5d38a8f93fa5fe6d4a0a74b64736f6c634300081b0033","opcodes":"PUSH1 0x80 PUSH1 0x40 MSTORE CALLVALUE DUP1 ISZERO PUSH1 0xF JUMPI PUSH1 0x0 DUP1 REVERT JUMPDEST POP PUSH2 0xCB4 DUP1 PUSH2 0x1F PUSH1 0x0 CODECOPY PUSH1 0x0 RETURN INVALID PUSH1 0x80 PUSH1 0x40 MSTORE PUSH1 0x4 CALLDATASIZE LT PUSH2 0x34 JUMPI PUSH1 0x0 CALLDATALOAD PUSH1 0xE0 SHR DUP1 PUSH4 0x3D536A2E EQ PUSH2 0x39 JUMPI DUP1 PUSH4 0x6D20931A EQ PUSH2 0x4E JUMPI DUP1 PUSH4 0xAB9E7F28 EQ PUSH2 0xBF JUMPI JUMPDEST PUSH1 0x0 DUP1 REVERT JUMPDEST PUSH2 0x4C PUSH2 0x47 CALLDATASIZE PUSH1 0x4 PUSH2 0xA91 JUMP JUMPDEST PUSH2 0xDF JUMP JUMPDEST STOP JUMPDEST CALLVALUE DUP1 ISZERO PUSH2 0x5A JUMPI PUSH1 0x0 DUP1 REVERT JUMPDEST POP PUSH2 0x9C PUSH2 0x69 CALLDATASIZE PUSH1 0x4 PUSH2 0xA91 JUMP JUMPDEST DUP1 MLOAD PUSH1 0x20 DUP2 DUP4 ADD DUP2 ADD DUP1 MLOAD PUSH1 0x0 DUP3 MSTORE SWAP3 DUP3 ADD SWAP2 SWAP1 SWAP4 ADD KECCAK256 SWAP2 MSTORE PUSH1 0x2 DUP2 ADD SLOAD PUSH1 0x4 SWAP1 SWAP2 ADD SLOAD PUSH1 0xFF DUP1 DUP3 AND SWAP2 PUSH2 0x100 SWAP1 DIV AND DUP4 JUMP JUMPDEST PUSH1 0x40 DUP1 MLOAD SWAP4 DUP5 MSTORE PUSH1 0xFF SWAP1 SWAP3 AND PUSH1 0x20 DUP5 ADD MSTORE ISZERO ISZERO SWAP1 DUP3 ADD MSTORE PUSH1 0x60 ADD PUSH1 0x40 MLOAD DUP1 SWAP2 SUB SWAP1 RETURN JUMPDEST CALLVALUE DUP1 ISZERO PUSH2 0xCB JUMPI PUSH1 0x0 DUP1 REVERT JUMPDEST POP PUSH2 0x4C PUSH2 0xDA CALLDATASIZE PUSH1 0x4 PUSH2 0xACE JUMP JUMPDEST PUSH2 0x2F9 JUMP JUMPDEST PUSH1 0x0 DUP1 DUP3 PUSH1 0x40 MLOAD PUSH2 0xF0 SWAP2 SWAP1 PUSH2 0xB4A JUMP JUMPDEST SWAP1 DUP2 MSTORE PUSH1 0x20 ADD PUSH1 0x40 MLOAD DUP1 SWAP2 SUB SWAP1 KECCAK256 SWAP1 POP PUSH1 0x0 CALLVALUE GT PUSH2 0x15F JUMPI PUSH1 0x40 MLOAD PUSH3 0x461BCD PUSH1 0xE5 SHL DUP2 MSTORE PUSH1 0x20 PUSH1 0x4 DUP3 ADD MSTORE PUSH1 0x21 PUSH1 0x24 DUP3 ADD MSTORE PUSH32 0x42657420616D6F756E74206D7573742062652067726561746572207468616E20 PUSH1 0x44 DUP3 ADD MSTORE PUSH1 0x3 PUSH1 0xFC SHL PUSH1 0x64 DUP3 ADD MSTORE PUSH1 0x84 ADD JUMPDEST PUSH1 0x40 MLOAD DUP1 SWAP2 SUB SWAP1 REVERT JUMPDEST DUP1 SLOAD PUSH1 0x1 PUSH1 0x1 PUSH1 0xA0 SHL SUB AND ISZERO DUP1 PUSH2 0x181 JUMPI POP PUSH1 0x1 DUP2 ADD SLOAD PUSH1 0x1 PUSH1 0x1 PUSH1 0xA0 SHL SUB AND ISZERO JUMPDEST PUSH2 0x1BC JUMPI PUSH1 0x40 MLOAD PUSH3 0x461BCD PUSH1 0xE5 SHL DUP2 MSTORE PUSH1 0x20 PUSH1 0x4 DUP3 ADD MSTORE PUSH1 0xC PUSH1 0x24 DUP3 ADD MSTORE PUSH12 0x11D85B59481A5CC8199D5B1B PUSH1 0xA2 SHL PUSH1 0x44 DUP3 ADD MSTORE PUSH1 0x64 ADD PUSH2 0x156 JUMP JUMPDEST PUSH1 0x4 DUP2 ADD SLOAD PUSH2 0x100 SWAP1 DIV PUSH1 0xFF AND ISZERO PUSH2 0x211 JUMPI PUSH1 0x40 MLOAD PUSH3 0x461BCD PUSH1 0xE5 SHL DUP2 MSTORE PUSH1 0x20 PUSH1 0x4 DUP3 ADD MSTORE PUSH1 0x18 PUSH1 0x24 DUP3 ADD MSTORE PUSH24 0x47616D6520697320616C726561647920636F6D706C657465 PUSH1 0x40 SHL PUSH1 0x44 DUP3 ADD MSTORE PUSH1 0x64 ADD PUSH2 0x156 JUMP JUMPDEST DUP1 SLOAD PUSH1 0x1 PUSH1 0x1 PUSH1 0xA0 SHL SUB AND PUSH2 0x23B JUMPI DUP1 SLOAD PUSH1 0x1 PUSH1 0x1 PUSH1 0xA0 SHL SUB NOT AND CALLER OR DUP2 SSTORE CALLVALUE PUSH1 0x2 DUP3 ADD SSTORE PUSH2 0x2BC JUMP JUMPDEST DUP1 PUSH1 0x2 ADD SLOAD CALLVALUE EQ PUSH2 0x286 JUMPI PUSH1 0x40 MLOAD PUSH3 0x461BCD PUSH1 0xE5 SHL DUP2 MSTORE PUSH1 0x20 PUSH1 0x4 DUP3 ADD MSTORE PUSH1 0x15 PUSH1 0x24 DUP3 ADD MSTORE PUSH21 0x84CAE840C2DADEEADCE840DAEAE6E840DAC2E8C6D PUSH1 0x5B SHL PUSH1 0x44 DUP3 ADD MSTORE PUSH1 0x64 ADD PUSH2 0x156 JUMP JUMPDEST PUSH1 0x1 DUP2 ADD DUP1 SLOAD PUSH1 0x1 PUSH1 0x1 PUSH1 0xA0 SHL SUB NOT AND CALLER OR SWAP1 SSTORE PUSH2 0x2A5 PUSH1 0x2 TIMESTAMP PUSH2 0xB7C JUMP JUMPDEST PUSH1 0x4 DUP3 ADD DUP1 SLOAD PUSH1 0xFF NOT AND PUSH1 0xFF SWAP3 SWAP1 SWAP3 AND SWAP2 SWAP1 SWAP2 OR SWAP1 SSTORE JUMPDEST PUSH32 0x69B91453EDFA045ED34FEB2B032D08B6C3333EC2404F18B285C7CE7FFE69BA51 DUP3 CALLER PUSH1 0x40 MLOAD PUSH2 0x2ED SWAP3 SWAP2 SWAP1 PUSH2 0xBCA JUMP JUMPDEST PUSH1 0x40 MLOAD DUP1 SWAP2 SUB SWAP1 LOG1 POP POP JUMP JUMPDEST PUSH1 0x0 DUP1 DUP4 PUSH1 0x40 MLOAD PUSH2 0x30A SWAP2 SWAP1 PUSH2 0xB4A JUMP JUMPDEST SWAP1 DUP2 MSTORE PUSH1 0x40 MLOAD SWAP1 DUP2 SWAP1 SUB PUSH1 0x20 ADD SWAP1 KECCAK256 PUSH1 0x4 DUP2 ADD SLOAD SWAP1 SWAP2 POP PUSH1 0xFF PUSH2 0x100 SWAP1 SWAP2 DIV AND ISZERO PUSH2 0x372 JUMPI PUSH1 0x40 MLOAD PUSH3 0x461BCD PUSH1 0xE5 SHL DUP2 MSTORE PUSH1 0x20 PUSH1 0x4 DUP3 ADD MSTORE PUSH1 0x18 PUSH1 0x24 DUP3 ADD MSTORE PUSH24 0x47616D6520697320616C726561647920636F6D706C657465 PUSH1 0x40 SHL PUSH1 0x44 DUP3 ADD MSTORE PUSH1 0x64 ADD PUSH2 0x156 JUMP JUMPDEST PUSH1 0x4 DUP2 ADD SLOAD DUP2 SWAP1 PUSH1 0xFF AND PUSH1 0x2 DUP2 LT PUSH2 0x38C JUMPI PUSH2 0x38C PUSH2 0xB66 JUMP JUMPDEST ADD SLOAD PUSH1 0x1 PUSH1 0x1 PUSH1 0xA0 SHL SUB AND CALLER EQ PUSH2 0x3D5 JUMPI PUSH1 0x40 MLOAD PUSH3 0x461BCD PUSH1 0xE5 SHL DUP2 MSTORE PUSH1 0x20 PUSH1 0x4 DUP3 ADD MSTORE PUSH1 0xD PUSH1 0x24 DUP3 ADD MSTORE PUSH13 0x2737BA103CB7BAB9103A3AB937 PUSH1 0x99 SHL PUSH1 0x44 DUP3 ADD MSTORE PUSH1 0x64 ADD PUSH2 0x156 JUMP JUMPDEST PUSH1 0x9 DUP3 PUSH1 0xFF AND LT PUSH2 0x41B JUMPI PUSH1 0x40 MLOAD PUSH3 0x461BCD PUSH1 0xE5 SHL DUP2 MSTORE PUSH1 0x20 PUSH1 0x4 DUP3 ADD MSTORE PUSH1 0x10 PUSH1 0x24 DUP3 ADD MSTORE PUSH16 0x24B73B30B634B2103837B9B4BA34B7B7 PUSH1 0x81 SHL PUSH1 0x44 DUP3 ADD MSTORE PUSH1 0x64 ADD PUSH2 0x156 JUMP JUMPDEST DUP1 PUSH1 0x3 ADD DUP3 PUSH1 0xFF AND PUSH1 0x9 DUP2 LT PUSH2 0x433 JUMPI PUSH2 0x433 PUSH2 0xB66 JUMP JUMPDEST PUSH1 0x20 DUP2 DIV SWAP1 SWAP2 ADD SLOAD PUSH1 0xFF PUSH1 0x1F SWAP1 SWAP3 AND PUSH2 0x100 EXP SWAP1 DIV AND ISZERO PUSH2 0x48F JUMPI PUSH1 0x40 MLOAD PUSH3 0x461BCD PUSH1 0xE5 SHL DUP2 MSTORE PUSH1 0x20 PUSH1 0x4 DUP3 ADD MSTORE PUSH1 0x16 PUSH1 0x24 DUP3 ADD MSTORE PUSH22 0x2837B9B4BA34B7B71030B63932B0B23C903A30B5B2B7 PUSH1 0x51 SHL PUSH1 0x44 DUP3 ADD MSTORE PUSH1 0x64 ADD PUSH2 0x156 JUMP JUMPDEST PUSH1 0x4 DUP2 ADD SLOAD PUSH2 0x4A2 SWAP1 PUSH1 0xFF AND PUSH1 0x1 PUSH2 0xC0A JUMP JUMPDEST DUP2 PUSH1 0x3 ADD DUP4 PUSH1 0xFF AND PUSH1 0x9 DUP2 LT PUSH2 0x4BA JUMPI PUSH2 0x4BA PUSH2 0xB66 JUMP JUMPDEST PUSH1 0x20 SWAP2 DUP3 DUP3 DIV ADD SWAP2 SWAP1 MOD PUSH2 0x100 EXP DUP2 SLOAD DUP2 PUSH1 0xFF MUL NOT AND SWAP1 DUP4 PUSH1 0xFF AND MUL OR SWAP1 SSTORE POP PUSH32 0x7797A5894C806F547B9FE4152037457F2E4E886B1202FB8FC7BBDD941EF6F571 DUP4 DUP4 PUSH1 0x40 MLOAD PUSH2 0x50B SWAP3 SWAP2 SWAP1 PUSH2 0xC29 JUMP JUMPDEST PUSH1 0x40 MLOAD DUP1 SWAP2 SUB SWAP1 LOG1 PUSH1 0x40 DUP1 MLOAD PUSH2 0x120 DUP2 ADD SWAP2 DUP3 SWAP1 MSTORE PUSH2 0x569 SWAP2 PUSH1 0x3 DUP5 ADD SWAP1 PUSH1 0x9 SWAP1 DUP3 PUSH1 0x0 DUP6 JUMPDEST DUP3 SLOAD PUSH2 0x100 DUP4 SWAP1 EXP SWAP1 DIV PUSH1 0xFF AND DUP2 MSTORE PUSH1 0x20 PUSH1 0x1 SWAP3 DUP4 ADD DUP2 DUP2 DIV SWAP5 DUP6 ADD SWAP5 SWAP1 SWAP4 SUB SWAP1 SWAP3 MUL SWAP2 ADD DUP1 DUP5 GT PUSH2 0x531 JUMPI SWAP1 POP POP POP POP POP POP PUSH2 0x749 JUMP JUMPDEST ISZERO PUSH2 0x5FB JUMPI PUSH1 0x4 DUP2 ADD DUP1 SLOAD PUSH2 0xFF00 NOT AND PUSH2 0x100 OR SWAP1 SSTORE PUSH1 0x2 DUP1 DUP3 ADD SLOAD CALLER SWAP2 PUSH2 0x8FC SWAP2 PUSH2 0x594 SWAP2 PUSH2 0xC4E JUMP JUMPDEST PUSH1 0x40 MLOAD DUP2 ISZERO SWAP1 SWAP3 MUL SWAP2 PUSH1 0x0 DUP2 DUP2 DUP2 DUP6 DUP9 DUP9 CALL SWAP4 POP POP POP POP ISZERO DUP1 ISZERO PUSH2 0x5BC JUMPI RETURNDATASIZE PUSH1 0x0 DUP1 RETURNDATACOPY RETURNDATASIZE PUSH1 0x0 REVERT JUMPDEST POP PUSH32 0x86C4E7F427F035C302CE566CDD56A7FD525C4375C16343C801731901D3D58F27 DUP4 CALLER PUSH1 0x40 MLOAD PUSH2 0x5EE SWAP3 SWAP2 SWAP1 PUSH2 0xBCA JUMP JUMPDEST PUSH1 0x40 MLOAD DUP1 SWAP2 SUB SWAP1 LOG1 POP POP POP JUMP JUMPDEST PUSH1 0x40 DUP1 MLOAD PUSH2 0x120 DUP2 ADD SWAP2 DUP3 SWAP1 MSTORE PUSH2 0x651 SWAP2 PUSH1 0x3 DUP5 ADD SWAP1 PUSH1 0x9 SWAP1 DUP3 PUSH1 0x0 DUP6 JUMPDEST DUP3 SLOAD PUSH2 0x100 DUP4 SWAP1 EXP SWAP1 DIV PUSH1 0xFF AND DUP2 MSTORE PUSH1 0x20 PUSH1 0x1 SWAP3 DUP4 ADD DUP2 DUP2 DIV SWAP5 DUP6 ADD SWAP5 SWAP1 SWAP4 SUB SWAP1 SWAP3 MUL SWAP2 ADD DUP1 DUP5 GT PUSH2 0x619 JUMPI SWAP1 POP POP POP POP POP POP PUSH2 0x9A4 JUMP JUMPDEST ISZERO PUSH2 0x71B JUMPI PUSH1 0x4 DUP2 ADD DUP1 SLOAD PUSH2 0xFF00 NOT AND PUSH2 0x100 OR SWAP1 SSTORE DUP1 PUSH1 0x0 ADD SLOAD PUSH1 0x2 DUP3 ADD SLOAD PUSH1 0x40 MLOAD PUSH1 0x1 PUSH1 0x1 PUSH1 0xA0 SHL SUB SWAP1 SWAP3 AND SWAP2 DUP2 ISZERO PUSH2 0x8FC MUL SWAP2 SWAP1 PUSH1 0x0 DUP2 DUP2 DUP2 DUP6 DUP9 DUP9 CALL SWAP4 POP POP POP POP ISZERO DUP1 ISZERO PUSH2 0x6A7 JUMPI RETURNDATASIZE PUSH1 0x0 DUP1 RETURNDATACOPY RETURNDATASIZE PUSH1 0x0 REVERT JUMPDEST POP DUP1 PUSH1 0x1 ADD SLOAD PUSH1 0x2 DUP3 ADD SLOAD PUSH1 0x40 MLOAD PUSH1 0x1 PUSH1 0x1 PUSH1 0xA0 SHL SUB SWAP1 SWAP3 AND SWAP2 DUP2 ISZERO PUSH2 0x8FC MUL SWAP2 SWAP1 PUSH1 0x0 DUP2 DUP2 DUP2 DUP6 DUP9 DUP9 CALL SWAP4 POP POP POP POP ISZERO DUP1 ISZERO PUSH2 0x6E8 JUMPI RETURNDATASIZE PUSH1 0x0 DUP1 RETURNDATACOPY RETURNDATASIZE PUSH1 0x0 REVERT JUMPDEST POP PUSH32 0x86C4E7F427F035C302CE566CDD56A7FD525C4375C16343C801731901D3D58F27 DUP4 PUSH1 0x0 PUSH1 0x40 MLOAD PUSH2 0x5EE SWAP3 SWAP2 SWAP1 PUSH2 0xBCA JUMP JUMPDEST PUSH1 0x4 DUP2 ADD SLOAD PUSH2 0x72E SWAP1 PUSH1 0xFF AND PUSH1 0x1 PUSH2 0xC65 JUMP JUMPDEST PUSH1 0x4 DUP3 ADD DUP1 SLOAD PUSH1 0xFF NOT AND PUSH1 0xFF SWAP3 SWAP1 SWAP3 AND SWAP2 SWAP1 SWAP2 OR SWAP1 SSTORE POP POP POP JUMP JUMPDEST PUSH1 0x40 DUP1 MLOAD PUSH2 0x160 DUP2 ADD DUP3 MSTORE PUSH1 0x0 PUSH2 0x100 DUP3 ADD DUP2 DUP2 MSTORE PUSH1 0x1 PUSH2 0x120 DUP5 ADD DUP2 SWAP1 MSTORE PUSH1 0x2 PUSH2 0x140 DUP6 ADD DUP2 SWAP1 MSTORE SWAP2 DUP5 MSTORE DUP5 MLOAD PUSH1 0x60 DUP2 DUP2 ADD DUP8 MSTORE PUSH1 0x3 DUP1 DUP4 MSTORE PUSH1 0x4 PUSH1 0x20 DUP5 DUP2 ADD DUP3 SWAP1 MSTORE PUSH1 0x5 DUP6 DUP12 ADD DUP2 SWAP1 MSTORE DUP2 DUP11 ADD SWAP6 SWAP1 SWAP6 MSTORE DUP10 MLOAD DUP1 DUP6 ADD DUP12 MSTORE PUSH1 0x6 DUP1 DUP3 MSTORE PUSH1 0x7 DUP3 DUP5 ADD DUP2 SWAP1 MSTORE PUSH1 0x8 DUP4 DUP15 ADD DUP2 SWAP1 MSTORE DUP13 DUP15 ADD SWAP4 SWAP1 SWAP4 MSTORE DUP13 MLOAD DUP1 DUP9 ADD DUP15 MSTORE DUP12 DUP2 MSTORE DUP1 DUP6 ADD SWAP7 SWAP1 SWAP7 MSTORE DUP6 DUP14 ADD DUP3 SWAP1 MSTORE DUP7 DUP13 ADD SWAP6 SWAP1 SWAP6 MSTORE DUP12 MLOAD DUP1 DUP8 ADD DUP14 MSTORE SWAP8 DUP9 MSTORE DUP8 DUP4 ADD DUP5 SWAP1 MSTORE DUP8 DUP13 ADD SWAP5 SWAP1 SWAP5 MSTORE PUSH1 0x80 DUP11 ADD SWAP7 SWAP1 SWAP7 MSTORE DUP10 MLOAD DUP1 DUP6 ADD DUP12 MSTORE DUP8 DUP2 MSTORE DUP1 DUP3 ADD SWAP6 SWAP1 SWAP6 MSTORE DUP5 DUP11 ADD DUP7 SWAP1 MSTORE PUSH1 0xA0 DUP10 ADD SWAP5 SWAP1 SWAP5 MSTORE DUP9 MLOAD DUP1 DUP5 ADD DUP11 MSTORE DUP8 DUP2 MSTORE DUP1 DUP6 ADD DUP3 SWAP1 MSTORE DUP1 DUP11 ADD SWAP6 SWAP1 SWAP6 MSTORE PUSH1 0xC0 DUP9 ADD SWAP5 SWAP1 SWAP5 MSTORE DUP8 MLOAD SWAP2 DUP3 ADD DUP9 MSTORE SWAP4 DUP2 MSTORE SWAP1 DUP2 ADD SWAP2 SWAP1 SWAP2 MSTORE SWAP4 DUP5 ADD MSTORE PUSH1 0xE0 DUP3 ADD SWAP3 SWAP1 SWAP3 MSTORE DUP2 JUMPDEST PUSH1 0x8 DUP2 LT ISZERO PUSH2 0x99A JUMPI DUP4 DUP3 DUP3 PUSH1 0x8 DUP2 LT PUSH2 0x875 JUMPI PUSH2 0x875 PUSH2 0xB66 JUMP JUMPDEST PUSH1 0x20 MUL ADD MLOAD MLOAD PUSH1 0xFF AND PUSH1 0x9 DUP2 LT PUSH2 0x88E JUMPI PUSH2 0x88E PUSH2 0xB66 JUMP JUMPDEST PUSH1 0x20 MUL ADD MLOAD PUSH1 0xFF AND ISZERO DUP1 ISZERO SWAP1 PUSH2 0x90F JUMPI POP DUP4 DUP3 DUP3 PUSH1 0x8 DUP2 LT PUSH2 0x8B2 JUMPI PUSH2 0x8B2 PUSH2 0xB66 JUMP JUMPDEST PUSH1 0x20 MUL ADD MLOAD PUSH1 0x1 PUSH1 0x20 MUL ADD MLOAD PUSH1 0xFF AND PUSH1 0x9 DUP2 LT PUSH2 0x8D1 JUMPI PUSH2 0x8D1 PUSH2 0xB66 JUMP JUMPDEST PUSH1 0x20 MUL ADD MLOAD PUSH1 0xFF AND DUP5 DUP4 DUP4 PUSH1 0x8 DUP2 LT PUSH2 0x8EC JUMPI PUSH2 0x8EC PUSH2 0xB66 JUMP JUMPDEST PUSH1 0x20 MUL ADD MLOAD MLOAD PUSH1 0xFF AND PUSH1 0x9 DUP2 LT PUSH2 0x905 JUMPI PUSH2 0x905 PUSH2 0xB66 JUMP JUMPDEST PUSH1 0x20 MUL ADD MLOAD PUSH1 0xFF AND EQ JUMPDEST DUP1 ISZERO PUSH2 0x983 JUMPI POP DUP4 DUP3 DUP3 PUSH1 0x8 DUP2 LT PUSH2 0x929 JUMPI PUSH2 0x929 PUSH2 0xB66 JUMP JUMPDEST PUSH1 0x20 MUL ADD MLOAD PUSH1 0x40 ADD MLOAD PUSH1 0xFF AND PUSH1 0x9 DUP2 LT PUSH2 0x945 JUMPI PUSH2 0x945 PUSH2 0xB66 JUMP JUMPDEST PUSH1 0x20 MUL ADD MLOAD PUSH1 0xFF AND DUP5 DUP4 DUP4 PUSH1 0x8 DUP2 LT PUSH2 0x960 JUMPI PUSH2 0x960 PUSH2 0xB66 JUMP JUMPDEST PUSH1 0x20 MUL ADD MLOAD MLOAD PUSH1 0xFF AND PUSH1 0x9 DUP2 LT PUSH2 0x979 JUMPI PUSH2 0x979 PUSH2 0xB66 JUMP JUMPDEST PUSH1 0x20 MUL ADD MLOAD PUSH1 0xFF AND EQ JUMPDEST ISZERO PUSH2 0x992 JUMPI POP PUSH1 0x1 SWAP4 SWAP3 POP POP POP JUMP JUMPDEST PUSH1 0x1 ADD PUSH2 0x859 JUMP JUMPDEST POP PUSH1 0x0 SWAP4 SWAP3 POP POP POP JUMP JUMPDEST PUSH1 0x0 DUP1 JUMPDEST PUSH1 0x9 DUP2 LT ISZERO PUSH2 0x9E3 JUMPI DUP3 DUP2 PUSH1 0x9 DUP2 LT PUSH2 0x9C3 JUMPI PUSH2 0x9C3 PUSH2 0xB66 JUMP JUMPDEST PUSH1 0x20 MUL ADD MLOAD PUSH1 0xFF AND PUSH1 0x0 SUB PUSH2 0x9DB JUMPI POP PUSH1 0x0 SWAP3 SWAP2 POP POP JUMP JUMPDEST PUSH1 0x1 ADD PUSH2 0x9A8 JUMP JUMPDEST POP PUSH1 0x1 SWAP3 SWAP2 POP POP JUMP JUMPDEST PUSH4 0x4E487B71 PUSH1 0xE0 SHL PUSH1 0x0 MSTORE PUSH1 0x41 PUSH1 0x4 MSTORE PUSH1 0x24 PUSH1 0x0 REVERT JUMPDEST PUSH1 0x0 DUP3 PUSH1 0x1F DUP4 ADD SLT PUSH2 0xA13 JUMPI PUSH1 0x0 DUP1 REVERT JUMPDEST DUP2 CALLDATALOAD PUSH8 0xFFFFFFFFFFFFFFFF DUP2 GT ISZERO PUSH2 0xA2D JUMPI PUSH2 0xA2D PUSH2 0x9EC JUMP JUMPDEST PUSH1 0x40 MLOAD PUSH1 0x1F DUP3 ADD PUSH1 0x1F NOT SWAP1 DUP2 AND PUSH1 0x3F ADD AND DUP2 ADD PUSH8 0xFFFFFFFFFFFFFFFF DUP2 GT DUP3 DUP3 LT OR ISZERO PUSH2 0xA5C JUMPI PUSH2 0xA5C PUSH2 0x9EC JUMP JUMPDEST PUSH1 0x40 MSTORE DUP2 DUP2 MSTORE DUP4 DUP3 ADD PUSH1 0x20 ADD DUP6 LT ISZERO PUSH2 0xA74 JUMPI PUSH1 0x0 DUP1 REVERT JUMPDEST DUP2 PUSH1 0x20 DUP6 ADD PUSH1 0x20 DUP4 ADD CALLDATACOPY PUSH1 0x0 SWAP2 DUP2 ADD PUSH1 0x20 ADD SWAP2 SWAP1 SWAP2 MSTORE SWAP4 SWAP3 POP POP POP JUMP JUMPDEST PUSH1 0x0 PUSH1 0x20 DUP3 DUP5 SUB SLT ISZERO PUSH2 0xAA3 JUMPI PUSH1 0x0 DUP1 REVERT JUMPDEST DUP2 CALLDATALOAD PUSH8 0xFFFFFFFFFFFFFFFF DUP2 GT ISZERO PUSH2 0xABA JUMPI PUSH1 0x0 DUP1 REVERT JUMPDEST PUSH2 0xAC6 DUP5 DUP3 DUP6 ADD PUSH2 0xA02 JUMP JUMPDEST SWAP5 SWAP4 POP POP POP POP JUMP JUMPDEST PUSH1 0x0 DUP1 PUSH1 0x40 DUP4 DUP6 SUB SLT ISZERO PUSH2 0xAE1 JUMPI PUSH1 0x0 DUP1 REVERT JUMPDEST DUP3 CALLDATALOAD PUSH8 0xFFFFFFFFFFFFFFFF DUP2 GT ISZERO PUSH2 0xAF8 JUMPI PUSH1 0x0 DUP1 REVERT JUMPDEST PUSH2 0xB04 DUP6 DUP3 DUP7 ADD PUSH2 0xA02 JUMP JUMPDEST SWAP3 POP POP PUSH1 0x20 DUP4 ADD CALLDATALOAD PUSH1 0xFF DUP2 AND DUP2 EQ PUSH2 0xB1B JUMPI PUSH1 0x0 DUP1 REVERT JUMPDEST DUP1 SWAP2 POP POP SWAP3 POP SWAP3 SWAP1 POP JUMP JUMPDEST PUSH1 0x0 JUMPDEST DUP4 DUP2 LT ISZERO PUSH2 0xB41 JUMPI DUP2 DUP2 ADD MLOAD DUP4 DUP3 ADD MSTORE PUSH1 0x20 ADD PUSH2 0xB29 JUMP JUMPDEST POP POP PUSH1 0x0 SWAP2 ADD MSTORE JUMP JUMPDEST PUSH1 0x0 DUP3 MLOAD PUSH2 0xB5C DUP2 DUP5 PUSH1 0x20 DUP8 ADD PUSH2 0xB26 JUMP JUMPDEST SWAP2 SWAP1 SWAP2 ADD SWAP3 SWAP2 POP POP JUMP JUMPDEST PUSH4 0x4E487B71 PUSH1 0xE0 SHL PUSH1 0x0 MSTORE PUSH1 0x32 PUSH1 0x4 MSTORE PUSH1 0x24 PUSH1 0x0 REVERT JUMPDEST PUSH1 0x0 DUP3 PUSH2 0xB99 JUMPI PUSH4 0x4E487B71 PUSH1 0xE0 SHL PUSH1 0x0 MSTORE PUSH1 0x12 PUSH1 0x4 MSTORE PUSH1 0x24 PUSH1 0x0 REVERT JUMPDEST POP MOD SWAP1 JUMP JUMPDEST PUSH1 0x0 DUP2 MLOAD DUP1 DUP5 MSTORE PUSH2 0xBB6 DUP2 PUSH1 0x20 DUP7 ADD PUSH1 0x20 DUP7 ADD PUSH2 0xB26 JUMP JUMPDEST PUSH1 0x1F ADD PUSH1 0x1F NOT AND SWAP3 SWAP1 SWAP3 ADD PUSH1 0x20 ADD SWAP3 SWAP2 POP POP JUMP JUMPDEST PUSH1 0x40 DUP2 MSTORE PUSH1 0x0 PUSH2 0xBDD PUSH1 0x40 DUP4 ADD DUP6 PUSH2 0xB9E JUMP JUMPDEST SWAP1 POP PUSH1 0x1 DUP1 PUSH1 0xA0 SHL SUB DUP4 AND PUSH1 0x20 DUP4 ADD MSTORE SWAP4 SWAP3 POP POP POP JUMP JUMPDEST PUSH4 0x4E487B71 PUSH1 0xE0 SHL PUSH1 0x0 MSTORE PUSH1 0x11 PUSH1 0x4 MSTORE PUSH1 0x24 PUSH1 0x0 REVERT JUMPDEST PUSH1 0xFF DUP2 DUP2 AND DUP4 DUP3 AND ADD SWAP1 DUP2 GT ISZERO PUSH2 0xC23 JUMPI PUSH2 0xC23 PUSH2 0xBF4 JUMP JUMPDEST SWAP3 SWAP2 POP POP JUMP JUMPDEST PUSH1 0x40 DUP2 MSTORE PUSH1 0x0 PUSH2 0xC3C PUSH1 0x40 DUP4 ADD DUP6 PUSH2 0xB9E JUMP JUMPDEST SWAP1 POP PUSH1 0xFF DUP4 AND PUSH1 0x20 DUP4 ADD MSTORE SWAP4 SWAP3 POP POP POP JUMP JUMPDEST DUP1 DUP3 MUL DUP2 ISZERO DUP3 DUP3 DIV DUP5 EQ OR PUSH2 0xC23 JUMPI PUSH2 0xC23 PUSH2 0xBF4 JUMP JUMPDEST PUSH1 0xFF DUP3 DUP2 AND DUP3 DUP3 AND SUB SWAP1 DUP2 GT ISZERO PUSH2 0xC23 JUMPI PUSH2 0xC23 PUSH2 0xBF4 JUMP INVALID LOG2 PUSH5 0x6970667358 0x22 SLT KECCAK256 REVERT CALLDATACOPY SLT NOT ADDRESS PUSH19 0x471912228DED7D736E15E20AEAFAB5D38A8F93 STATICCALL PUSH0 0xE6 0xD4 LOG0 0xA7 0x4B PUSH5 0x736F6C6343 STOP ADDMOD SHL STOP CALLER "},"methodIdentifiers":{"games(string)":"6d20931a","joinGame(string)":"3d536a2e","makeMove(string,uint8)":"ab9e7f28"}}}}}