{
  "_format": "hh-sol-artifact-1",
  "contractName": "TicTacToe",
  "sourceName": "contracts/TicTacToe.sol",
  "abi": [
    {
      "anonymous": false,
      "inputs": [
        {
          "indexed": false,
          "internalType": "string",
          "name": "gameId",
          "type": "string"
        },
        {
          "indexed": false,
          "internalType": "address",
          "name": "player",
          "type": "address"
        }
      ],
      "name": "GameJoined",
      "type": "event"
    },
    {
      "anonymous": false,
      "inputs": [
        {
          "indexed": false,
          "internalType": "string",
          "name": "gameId",
          "type": "string"
        },
        {
          "indexed": false,
          "internalType": "address",
          "name": "winner",
          "type": "address"
        }
      ],
      "name": "GameOver",
      "type": "event"
    },
    {
      "anonymous": false,
      "inputs": [
        {
          "indexed": false,
          "internalType": "string",
          "name": "gameId",
          "type": "string"
        },
        {
          "indexed": false,
          "internalType": "uint8",
          "name": "position",
          "type": "uint8"
        }
      ],
      "name": "MoveMade",
      "type": "event"
    },
    {
      "inputs": [
        {
          "internalType": "string",
          "name": "",
          "type": "string"
        }
      ],
      "name": "games",
      "outputs": [
        {
          "internalType": "uint256",
          "name": "betAmount",
          "type": "uint256"
        },
        {
          "internalType": "uint8",
          "name": "currentTurn",
          "type": "uint8"
        },
        {
          "internalType": "bool",
          "name": "isComplete",
          "type": "bool"
        }
      ],
      "stateMutability": "view",
      "type": "function"
    },
    {
      "inputs": [
        {
          "internalType": "string",
          "name": "gameId",
          "type": "string"
        }
      ],
      "name": "joinGame",
      "outputs": [],
      "stateMutability": "payable",
      "type": "function"
    },
    {
      "inputs": [
        {
          "internalType": "string",
          "name": "gameId",
          "type": "string"
        },
        {
          "internalType": "uint8",
          "name": "position",
          "type": "uint8"
        }
      ],
      "name": "makeMove",
      "outputs": [],
      "stateMutability": "nonpayable",
      "type": "function"
    }
  ],
  "bytecode": "0x6080604052348015600f57600080fd5b50610cb48061001f6000396000f3fe6080604052600436106100345760003560e01c80633d536a2e146100395780636d20931a1461004e578063ab9e7f28146100bf575b600080fd5b61004c610047366004610a91565b6100df565b005b34801561005a57600080fd5b5061009c610069366004610a91565b80516020818301810180516000825292820191909301209152600281015460049091015460ff8082169161010090041683565b6040805193845260ff909216602084015215159082015260600160405180910390f35b3480156100cb57600080fd5b5061004c6100da366004610ace565b6102f9565b600080826040516100f09190610b4a565b908152602001604051809103902090506000341161015f5760405162461bcd60e51b815260206004820152602160248201527f42657420616d6f756e74206d7573742062652067726561746572207468616e206044820152600360fc1b60648201526084015b60405180910390fd5b80546001600160a01b03161580610181575060018101546001600160a01b0316155b6101bc5760405162461bcd60e51b815260206004820152600c60248201526b11d85b59481a5cc8199d5b1b60a21b6044820152606401610156565b6004810154610100900460ff16156102115760405162461bcd60e51b815260206004820152601860248201527747616d6520697320616c726561647920636f6d706c65746560401b6044820152606401610156565b80546001600160a01b031661023b5780546001600160a01b031916331781553460028201556102bc565b806002015434146102865760405162461bcd60e51b8152602060048201526015602482015274084cae840c2dadeeadce840daeae6e840dac2e8c6d605b1b6044820152606401610156565b6001810180546001600160a01b031916331790556102a5600242610b7c565b60048201805460ff191660ff929092169190911790555b7f69b91453edfa045ed34feb2b032d08b6c3333ec2404f18b285c7ce7ffe69ba5182336040516102ed929190610bca565b60405180910390a15050565b6000808360405161030a9190610b4a565b908152604051908190036020019020600481015490915060ff61010090910416156103725760405162461bcd60e51b815260206004820152601860248201527747616d6520697320616c726561647920636f6d706c65746560401b6044820152606401610156565b6004810154819060ff166002811061038c5761038c610b66565b01546001600160a01b031633146103d55760405162461bcd60e51b815260206004820152600d60248201526c2737ba103cb7bab9103a3ab93760991b6044820152606401610156565b60098260ff161061041b5760405162461bcd60e51b815260206004820152601060248201526f24b73b30b634b2103837b9b4ba34b7b760811b6044820152606401610156565b806003018260ff166009811061043357610433610b66565b602081049091015460ff601f9092166101000a9004161561048f5760405162461bcd60e51b81526020600482015260166024820152752837b9b4ba34b7b71030b63932b0b23c903a30b5b2b760511b6044820152606401610156565b60048101546104a29060ff166001610c0a565b816003018360ff16600981106104ba576104ba610b66565b602091828204019190066101000a81548160ff021916908360ff1602179055507f7797a5894c806f547b9fe4152037457f2e4e886b1202fb8fc7bbdd941ef6f571838360405161050b929190610c29565b60405180910390a160408051610120810191829052610569916003840190600990826000855b825461010083900a900460ff168152602060019283018181049485019490930390920291018084116105315790505050505050610749565b156105fb5760048101805461ff00191661010017905560028082015433916108fc9161059491610c4e565b6040518115909202916000818181858888f193505050501580156105bc573d6000803e3d6000fd5b507f86c4e7f427f035c302ce566cdd56a7fd525c4375c16343c801731901d3d58f2783336040516105ee929190610bca565b60405180910390a1505050565b60408051610120810191829052610651916003840190600990826000855b825461010083900a900460ff1681526020600192830181810494850194909303909202910180841161061957905050505050506109a4565b1561071b5760048101805461ff001916610100179055806000015460028201546040516001600160a01b039092169181156108fc0291906000818181858888f193505050501580156106a7573d6000803e3d6000fd5b50806001015460028201546040516001600160a01b039092169181156108fc0291906000818181858888f193505050501580156106e8573d6000803e3d6000fd5b507f86c4e7f427f035c302ce566cdd56a7fd525c4375c16343c801731901d3d58f278360006040516105ee929190610bca565b600481015461072e9060ff166001610c65565b60048201805460ff191660ff92909216919091179055505050565b60408051610160810182526000610100820181815260016101208401819052600261014085018190529184528451606081810187526003808352600460208481018290526005858b01819052818a019590955289518085018b52600680825260078284018190526008838e018190528c8e01939093528c518088018e528b815280850196909652858d01829052868c01959095528b518087018d52978852878301849052878c019490945260808a019690965289518085018b5287815280820195909552848a0186905260a089019490945288518084018a52878152808501829052808a019590955260c088019490945287519182018852938152908101919091529384015260e0820192909252815b600881101561099a578382826008811061087557610875610b66565b60200201515160ff166009811061088e5761088e610b66565b602002015160ff161580159061090f5750838282600881106108b2576108b2610b66565b60200201516001602002015160ff16600981106108d1576108d1610b66565b602002015160ff16848383600881106108ec576108ec610b66565b60200201515160ff166009811061090557610905610b66565b602002015160ff16145b801561098357508382826008811061092957610929610b66565b60200201516040015160ff166009811061094557610945610b66565b602002015160ff168483836008811061096057610960610b66565b60200201515160ff166009811061097957610979610b66565b602002015160ff16145b15610992575060019392505050565b600101610859565b5060009392505050565b6000805b60098110156109e3578281600981106109c3576109c3610b66565b602002015160ff166000036109db5750600092915050565b6001016109a8565b50600192915050565b634e487b7160e01b600052604160045260246000fd5b600082601f830112610a1357600080fd5b813567ffffffffffffffff811115610a2d57610a2d6109ec565b604051601f8201601f19908116603f0116810167ffffffffffffffff81118282101715610a5c57610a5c6109ec565b604052818152838201602001851015610a7457600080fd5b816020850160208301376000918101602001919091529392505050565b600060208284031215610aa357600080fd5b813567ffffffffffffffff811115610aba57600080fd5b610ac684828501610a02565b949350505050565b60008060408385031215610ae157600080fd5b823567ffffffffffffffff811115610af857600080fd5b610b0485828601610a02565b925050602083013560ff81168114610b1b57600080fd5b809150509250929050565b60005b83811015610b41578181015183820152602001610b29565b50506000910152565b60008251610b5c818460208701610b26565b9190910192915050565b634e487b7160e01b600052603260045260246000fd5b600082610b9957634e487b7160e01b600052601260045260246000fd5b500690565b60008151808452610bb6816020860160208601610b26565b601f01601f19169290920160200192915050565b604081526000610bdd6040830185610b9e565b905060018060a01b03831660208301529392505050565b634e487b7160e01b600052601160045260246000fd5b60ff8181168382160190811115610c2357610c23610bf4565b92915050565b604081526000610c3c6040830185610b9e565b905060ff831660208301529392505050565b8082028115828204841417610c2357610c23610bf4565b60ff8281168282160390811115610c2357610c23610bf456fea2646970667358221220fd3712193072471912228ded7d736e15e20aeafab5d38a8f93fa5fe6d4a0a74b64736f6c634300081b0033",
  "linkReferences": {},
  "deployedLinkReferences": {}
}